{"abi":[{"type":"constructor","inputs":[{"name":"initialSupply","type":"uint256","internalType":"uint256"}],"stateMutability":"nonpayable"},{"type":"function","name":"DEFAULT_ADMIN_ROLE","inputs":[],"outputs":[{"name":"","type":"bytes32","internalType":"bytes32"}],"stateMutability":"view"},{"type":"function","name":"PAUSER_ROLE","inputs":[],"outputs":[{"name":"","type":"bytes32","internalType":"bytes32"}],"stateMutability":"view"},{"type":"function","name":"allowance","inputs":[{"name":"owner","type":"address","internalType":"address"},{"name":"spender","type":"address","internalType":"address"}],"outputs":[{"name":"","type":"uint256","internalType":"uint256"}],"stateMutability":"view"},{"type":"function","name":"approve","inputs":[{"name":"spender","type":"address","internalType":"address"},{"name":"value","type":"uint256","internalType":"uint256"}],"outputs":[{"name":"","type":"bool","internalType":"bool"}],"stateMutability":"nonpayable"},{"type":"function","name":"balanceOf","inputs":[{"name":"account","type":"address","internalType":"address"}],"outputs":[{"name":"","type":"uint256","internalType":"uint256"}],"stateMutability":"view"},{"type":"function","name":"burn","inputs":[{"name":"value","type":"uint256","internalType":"uint256"}],"outputs":[],"stateMutability":"nonpayable"},{"type":"function","name":"burnFrom","inputs":[{"name":"account","type":"address","internalType":"address"},{"name":"value","type":"uint256","internalType":"uint256"}],"outputs":[],"stateMutability":"nonpayable"},{"type":"function","name":"decimals","inputs":[],"outputs":[{"name":"","type":"uint8","internalType":"uint8"}],"stateMutability":"view"},{"type":"function","name":"getRoleAdmin","inputs":[{"name":"role","type":"bytes32","internalType":"bytes32"}],"outputs":[{"name":"","type":"bytes32","internalType":"bytes32"}],"stateMutability":"view"},{"type":"function","name":"grantRole","inputs":[{"name":"role","type":"bytes32","internalType":"bytes32"},{"name":"account","type":"address","internalType":"address"}],"outputs":[],"stateMutability":"nonpayable"},{"type":"function","name":"hasRole","inputs":[{"name":"role","type":"bytes32","internalType":"bytes32"},{"name":"account","type":"address","internalType":"address"}],"outputs":[{"name":"","type":"bool","internalType":"bool"}],"stateMutability":"view"},{"type":"function","name":"mint","inputs":[{"name":"to","type":"address","internalType":"address"},{"name":"amount","type":"uint256","internalType":"uint256"}],"outputs":[],"stateMutability":"nonpayable"},{"type":"function","name":"name","inputs":[],"outputs":[{"name":"","type":"string","internalType":"string"}],"stateMutability":"view"},{"type":"function","name":"pause","inputs":[],"outputs":[],"stateMutability":"nonpayable"},{"type":"function","name":"paused","inputs":[],"outputs":[{"name":"","type":"bool","internalType":"bool"}],"stateMutability":"view"},{"type":"function","name":"renounceRole","inputs":[{"name":"role","type":"bytes32","internalType":"bytes32"},{"name":"callerConfirmation","type":"address","internalType":"address"}],"outputs":[],"stateMutability":"nonpayable"},{"type":"function","name":"revokeRole","inputs":[{"name":"role","type":"bytes32","internalType":"bytes32"},{"name":"account","type":"address","internalType":"address"}],"outputs":[],"stateMutability":"nonpayable"},{"type":"function","name":"supportsInterface","inputs":[{"name":"interfaceId","type":"bytes4","internalType":"bytes4"}],"outputs":[{"name":"","type":"bool","internalType":"bool"}],"stateMutability":"view"},{"type":"function","name":"symbol","inputs":[],"outputs":[{"name":"","type":"string","internalType":"string"}],"stateMutability":"view"},{"type":"function","name":"totalSupply","inputs":[],"outputs":[{"name":"","type":"uint256","internalType":"uint256"}],"stateMutability":"view"},{"type":"function","name":"transfer","inputs":[{"name":"to","type":"address","internalType":"address"},{"name":"value","type":"uint256","internalType":"uint256"}],"outputs":[{"name":"","type":"bool","internalType":"bool"}],"stateMutability":"nonpayable"},{"type":"function","name":"transferFrom","inputs":[{"name":"from","type":"address","internalType":"address"},{"name":"to","type":"address","internalType":"address"},{"name":"value","type":"uint256","internalType":"uint256"}],"outputs":[{"name":"","type":"bool","internalType":"bool"}],"stateMutability":"nonpayable"},{"type":"function","name":"unpause","inputs":[],"outputs":[],"stateMutability":"nonpayable"},{"type":"event","name":"Approval","inputs":[{"name":"owner","type":"address","indexed":true,"internalType":"address"},{"name":"spender","type":"address","indexed":true,"internalType":"address"},{"name":"value","type":"uint256","indexed":false,"internalType":"uint256"}],"anonymous":false},{"type":"event","name":"Paused","inputs":[{"name":"account","type":"address","indexed":false,"internalType":"address"}],"anonymous":false},{"type":"event","name":"RoleAdminChanged","inputs":[{"name":"role","type":"bytes32","indexed":true,"internalType":"bytes32"},{"name":"previousAdminRole","type":"bytes32","indexed":true,"internalType":"bytes32"},{"name":"newAdminRole","type":"bytes32","indexed":true,"internalType":"bytes32"}],"anonymous":false},{"type":"event","name":"RoleGranted","inputs":[{"name":"role","type":"bytes32","indexed":true,"internalType":"bytes32"},{"name":"account","type":"address","indexed":true,"internalType":"address"},{"name":"sender","type":"address","indexed":true,"internalType":"address"}],"anonymous":false},{"type":"event","name":"RoleRevoked","inputs":[{"name":"role","type":"bytes32","indexed":true,"internalType":"bytes32"},{"name":"account","type":"address","indexed":true,"internalType":"address"},{"name":"sender","type":"address","indexed":true,"internalType":"address"}],"anonymous":false},{"type":"event","name":"Transfer","inputs":[{"name":"from","type":"address","indexed":true,"internalType":"address"},{"name":"to","type":"address","indexed":true,"internalType":"address"},{"name":"value","type":"uint256","indexed":false,"internalType":"uint256"}],"anonymous":false},{"type":"event","name":"Unpaused","inputs":[{"name":"account","type":"address","indexed":false,"internalType":"address"}],"anonymous":false},{"type":"error","name":"AccessControlBadConfirmation","inputs":[]},{"type":"error","name":"AccessControlUnauthorizedAccount","inputs":[{"name":"account","type":"address","internalType":"address"},{"name":"neededRole","type":"bytes32","internalType":"bytes32"}]},{"type":"error","name":"ERC20InsufficientAllowance","inputs":[{"name":"spender","type":"address","internalType":"address"},{"name":"allowance","type":"uint256","internalType":"uint256"},{"name":"needed","type":"uint256","internalType":"uint256"}]},{"type":"error","name":"ERC20InsufficientBalance","inputs":[{"name":"sender","type":"address","internalType":"address"},{"name":"balance","type":"uint256","internalType":"uint256"},{"name":"needed","type":"uint256","internalType":"uint256"}]},{"type":"error","name":"ERC20InvalidApprover","inputs":[{"name":"approver","type":"address","internalType":"address"}]},{"type":"error","name":"ERC20InvalidReceiver","inputs":[{"name":"receiver","type":"address","internalType":"address"}]},{"type":"error","name":"ERC20InvalidSender","inputs":[{"name":"sender","type":"address","internalType":"address"}]},{"type":"error","name":"ERC20InvalidSpender","inputs":[{"name":"spender","type":"address","internalType":"address"}]},{"type":"error","name":"EnforcedPause","inputs":[]},{"type":"error","name":"ExpectedPause","inputs":[]}],"bytecode":{"object":"0x608060405234801561000f575f5ffd5b506040516123d73803806123d7833981810160405281019061003191906105ee565b6040518060400160405280600581526020017f41495553440000000000000000000000000000000000000000000000000000008152506040518060400160405280600581526020017f414955534400000000000000000000000000000000000000000000000000000081525081600390816100ac919061085e565b5080600490816100bc919061085e565b5050506100d15f5f1b3361012260201b60201c565b506101027f65d7a28e3265b37a6474929f336521b332c1681b933f6cb9f3376673440d862a3361012260201b60201c565b505f81111561011c5761011b338261021860201b60201c565b5b50610a42565b5f610133838361029d60201b60201c565b61020e57600160065f8581526020019081526020015f205f015f8473ffffffffffffffffffffffffffffffffffffffff1673ffffffffffffffffffffffffffffffffffffffff1681526020019081526020015f205f6101000a81548160ff0219169083151502179055506101ab61030160201b60201c565b73ffffffffffffffffffffffffffffffffffffffff168273ffffffffffffffffffffffffffffffffffffffff16847f2f8788117e7eff1d82e926ec794901d17c78024a50270940304540a733656f0d60405160405180910390a460019050610212565b5f90505b92915050565b5f73ffffffffffffffffffffffffffffffffffffffff168273ffffffffffffffffffffffffffffffffffffffff1603610288575f6040517fec442f0500000000000000000000000000000000000000000000000000000000815260040161027f919061096c565b60405180910390fd5b6102995f838361030860201b60201c565b5050565b5f60065f8481526020019081526020015f205f015f8373ffffffffffffffffffffffffffffffffffffffff1673ffffffffffffffffffffffffffffffffffffffff1681526020019081526020015f205f9054906101000a900460ff16905092915050565b5f33905090565b61031983838361031e60201b60201c565b505050565b61032c61034260201b60201c565b61033d83838361038960201b60201c565b505050565b6103506105a260201b60201c565b15610387576040517fd93c066500000000000000000000000000000000000000000000000000000000815260040160405180910390fd5b565b5f73ffffffffffffffffffffffffffffffffffffffff168373ffffffffffffffffffffffffffffffffffffffff16036103d9578060025f8282546103cd91906109b2565b925050819055506104a7565b5f5f5f8573ffffffffffffffffffffffffffffffffffffffff1673ffffffffffffffffffffffffffffffffffffffff1681526020019081526020015f2054905081811015610462578381836040517fe450d38c000000000000000000000000000000000000000000000000000000008152600401610459939291906109f4565b60405180910390fd5b8181035f5f8673ffffffffffffffffffffffffffffffffffffffff1673ffffffffffffffffffffffffffffffffffffffff1681526020019081526020015f2081905550505b5f73ffffffffffffffffffffffffffffffffffffffff168273ffffffffffffffffffffffffffffffffffffffff16036104ee578060025f8282540392505081905550610538565b805f5f8473ffffffffffffffffffffffffffffffffffffffff1673ffffffffffffffffffffffffffffffffffffffff1681526020019081526020015f205f82825401925050819055505b8173ffffffffffffffffffffffffffffffffffffffff168373ffffffffffffffffffffffffffffffffffffffff167fddf252ad1be2c89b69c2b068fc378daa952ba7f163c4a11628f55a4df523b3ef836040516105959190610a29565b60405180910390a3505050565b5f60055f9054906101000a900460ff16905090565b5f5ffd5b5f819050919050565b6105cd816105bb565b81146105d7575f5ffd5b50565b5f815190506105e8816105c4565b92915050565b5f60208284031215610603576106026105b7565b5b5f610610848285016105da565b91505092915050565b5f81519050919050565b7f4e487b71000000000000000000000000000000000000000000000000000000005f52604160045260245ffd5b7f4e487b71000000000000000000000000000000000000000000000000000000005f52602260045260245ffd5b5f600282049050600182168061069457607f821691505b6020821081036106a7576106a6610650565b5b50919050565b5f819050815f5260205f209050919050565b5f6020601f8301049050919050565b5f82821b905092915050565b5f600883026107097fffffffffffffffffffffffffffffffffffffffffffffffffffffffffffffffff826106ce565b61071386836106ce565b95508019841693508086168417925050509392505050565b5f819050919050565b5f61074e610749610744846105bb565b61072b565b6105bb565b9050919050565b5f819050919050565b61076783610734565b61077b61077382610755565b8484546106da565b825550505050565b5f5f905090565b610792610783565b61079d81848461075e565b505050565b5f5b828110156107c3576107b85f82840161078a565b6001810190506107a4565b505050565b601f8211156108165782821115610815576107e2816106ad565b6107eb836106bf565b6107f4856106bf565b6020861015610801575f90505b808301610810828403826107a2565b505050505b5b505050565b5f82821c905092915050565b5f6108365f198460080261081b565b1980831691505092915050565b5f61084e8383610827565b9150826002028217905092915050565b61086782610619565b67ffffffffffffffff8111156108805761087f610623565b5b61088a825461067d565b6108958282856107c8565b5f60209050601f8311600181146108c6575f84156108b4578287015190505b6108be8582610843565b865550610925565b601f1984166108d4866106ad565b5f5b828110156108fb578489015182556001820191506020850194506020810190506108d6565b868310156109185784890151610914601f891682610827565b8355505b6001600288020188555050505b505050505050565b5f73ffffffffffffffffffffffffffffffffffffffff82169050919050565b5f6109568261092d565b9050919050565b6109668161094c565b82525050565b5f60208201905061097f5f83018461095d565b92915050565b7f4e487b71000000000000000000000000000000000000000000000000000000005f52601160045260245ffd5b5f6109bc826105bb565b91506109c7836105bb565b92508282019050808211156109df576109de610985565b5b92915050565b6109ee816105bb565b82525050565b5f606082019050610a075f83018661095d565b610a1460208301856109e5565b610a2160408301846109e5565b949350505050565b5f602082019050610a3c5f8301846109e5565b92915050565b61198880610a4f5f395ff3fe608060405234801561000f575f5ffd5b506004361061014b575f3560e01c806342966c68116100c157806395d89b411161007a57806395d89b4114610387578063a217fddf146103a5578063a9059cbb146103c3578063d547741f146103f3578063dd62ed3e1461040f578063e63ab1e91461043f5761014b565b806342966c68146102c75780635c975abb146102e357806370a082311461030157806379cc6790146103315780638456cb591461034d57806391d14854146103575761014b565b8063248a9ca311610113578063248a9ca31461021b5780632f2ff15d1461024b578063313ce5671461026757806336568abe146102855780633f4ba83a146102a157806340c10f19146102ab5761014b565b806301ffc9a71461014f57806306fdde031461017f578063095ea7b31461019d57806318160ddd146101cd57806323b872dd146101eb575b5f5ffd5b61016960048036038101906101649190611454565b61045d565b6040516101769190611499565b60405180910390f35b6101876104d6565b6040516101949190611522565b60405180910390f35b6101b760048036038101906101b291906115cf565b610566565b6040516101c49190611499565b60405180910390f35b6101d5610588565b6040516101e2919061161c565b60405180910390f35b61020560048036038101906102009190611635565b610591565b6040516102129190611499565b60405180910390f35b610235600480360381019061023091906116b8565b6105bf565b60405161024291906116f2565b60405180910390f35b6102656004803603810190610260919061170b565b6105dc565b005b61026f6105fe565b60405161027c9190611764565b60405180910390f35b61029f600480360381019061029a919061170b565b610606565b005b6102a9610681565b005b6102c560048036038101906102c091906115cf565b6106b6565b005b6102e160048036038101906102dc919061177d565b6106c4565b005b6102eb6106d8565b6040516102f89190611499565b60405180910390f35b61031b600480360381019061031691906117a8565b6106ed565b604051610328919061161c565b60405180910390f35b61034b600480360381019061034691906115cf565b610732565b005b610355610752565b005b610371600480360381019061036c919061170b565b610787565b60405161037e9190611499565b60405180910390f35b61038f6107eb565b60405161039c9190611522565b60405180910390f35b6103ad61087b565b6040516103ba91906116f2565b60405180910390f35b6103dd60048036038101906103d891906115cf565b610881565b6040516103ea9190611499565b60405180910390f35b61040d6004803603810190610408919061170b565b6108a3565b005b610429600480360381019061042491906117d3565b6108c5565b604051610436919061161c565b60405180910390f35b610447610947565b60405161045491906116f2565b60405180910390f35b5f7f7965db0b000000000000000000000000000000000000000000000000000000007bffffffffffffffffffffffffffffffffffffffffffffffffffffffff1916827bffffffffffffffffffffffffffffffffffffffffffffffffffffffff191614806104cf57506104ce8261096b565b5b9050919050565b6060600380546104e59061183e565b80601f01602080910402602001604051908101604052809291908181526020018280546105119061183e565b801561055c5780601f106105335761010080835404028352916020019161055c565b820191905f5260205f20905b81548152906001019060200180831161053f57829003601f168201915b5050505050905090565b5f5f6105706109d4565b905061057d8185856109db565b600191505092915050565b5f600254905090565b5f5f61059b6109d4565b90506105a88582856109ed565b6105b3858585610a80565b60019150509392505050565b5f60065f8381526020019081526020015f20600101549050919050565b6105e5826105bf565b6105ee81610b70565b6105f88383610b84565b50505050565b5f6012905090565b61060e6109d4565b73ffffffffffffffffffffffffffffffffffffffff168173ffffffffffffffffffffffffffffffffffffffff1614610672576040517f6697b23200000000000000000000000000000000000000000000000000000000815260040160405180910390fd5b61067c8282610c6e565b505050565b7f65d7a28e3265b37a6474929f336521b332c1681b933f6cb9f3376673440d862a6106ab81610b70565b6106b3610d58565b50565b6106c08282610db9565b5050565b6106d56106cf6109d4565b82610e38565b50565b5f60055f9054906101000a900460ff16905090565b5f5f5f8373ffffffffffffffffffffffffffffffffffffffff1673ffffffffffffffffffffffffffffffffffffffff1681526020019081526020015f20549050919050565b6107448261073e6109d4565b836109ed565b61074e8282610e38565b5050565b7f65d7a28e3265b37a6474929f336521b332c1681b933f6cb9f3376673440d862a61077c81610b70565b610784610eb7565b50565b5f60065f8481526020019081526020015f205f015f8373ffffffffffffffffffffffffffffffffffffffff1673ffffffffffffffffffffffffffffffffffffffff1681526020019081526020015f205f9054906101000a900460ff16905092915050565b6060600480546107fa9061183e565b80601f01602080910402602001604051908101604052809291908181526020018280546108269061183e565b80156108715780601f1061084857610100808354040283529160200191610871565b820191905f5260205f20905b81548152906001019060200180831161085457829003601f168201915b5050505050905090565b5f5f1b81565b5f5f61088b6109d4565b9050610898818585610a80565b600191505092915050565b6108ac826105bf565b6108b581610b70565b6108bf8383610c6e565b50505050565b5f60015f8473ffffffffffffffffffffffffffffffffffffffff1673ffffffffffffffffffffffffffffffffffffffff1681526020019081526020015f205f8373ffffffffffffffffffffffffffffffffffffffff1673ffffffffffffffffffffffffffffffffffffffff1681526020019081526020015f2054905092915050565b7f65d7a28e3265b37a6474929f336521b332c1681b933f6cb9f3376673440d862a81565b5f7f01ffc9a7000000000000000000000000000000000000000000000000000000007bffffffffffffffffffffffffffffffffffffffffffffffffffffffff1916827bffffffffffffffffffffffffffffffffffffffffffffffffffffffff1916149050919050565b5f33905090565b6109e88383836001610f19565b505050565b5f6109f884846108c5565b90507fffffffffffffffffffffffffffffffffffffffffffffffffffffffffffffffff811015610a7a5781811015610a6b578281836040517ffb8f41b2000000000000000000000000000000000000000000000000000000008152600401610a629392919061187d565b60405180910390fd5b610a7984848484035f610f19565b5b50505050565b5f73ffffffffffffffffffffffffffffffffffffffff168373ffffffffffffffffffffffffffffffffffffffff1603610af0575f6040517f96c6fd1e000000000000000000000000000000000000000000000000000000008152600401610ae791906118b2565b60405180910390fd5b5f73ffffffffffffffffffffffffffffffffffffffff168273ffffffffffffffffffffffffffffffffffffffff1603610b60575f6040517fec442f05000000000000000000000000000000000000000000000000000000008152600401610b5791906118b2565b60405180910390fd5b610b6b8383836110e8565b505050565b610b8181610b7c6109d4565b6110f8565b50565b5f610b8f8383610787565b610c6457600160065f8581526020019081526020015f205f015f8473ffffffffffffffffffffffffffffffffffffffff1673ffffffffffffffffffffffffffffffffffffffff1681526020019081526020015f205f6101000a81548160ff021916908315150217905550610c016109d4565b73ffffffffffffffffffffffffffffffffffffffff168273ffffffffffffffffffffffffffffffffffffffff16847f2f8788117e7eff1d82e926ec794901d17c78024a50270940304540a733656f0d60405160405180910390a460019050610c68565b5f90505b92915050565b5f610c798383610787565b15610d4e575f60065f8581526020019081526020015f205f015f8473ffffffffffffffffffffffffffffffffffffffff1673ffffffffffffffffffffffffffffffffffffffff1681526020019081526020015f205f6101000a81548160ff021916908315150217905550610ceb6109d4565b73ffffffffffffffffffffffffffffffffffffffff168273ffffffffffffffffffffffffffffffffffffffff16847ff6391f5c32d9c69d2a47ea670b442974b53935d1edc7fd64eb21e047a839171b60405160405180910390a460019050610d52565b5f90505b92915050565b610d60611149565b5f60055f6101000a81548160ff0219169083151502179055507f5db9ee0a495bf2e6ff9c91a7834c1ba4fdd244a5e8aa4e537bd38aeae4b073aa610da26109d4565b604051610daf91906118b2565b60405180910390a1565b5f73ffffffffffffffffffffffffffffffffffffffff168273ffffffffffffffffffffffffffffffffffffffff1603610e29575f6040517fec442f05000000000000000000000000000000000000000000000000000000008152600401610e2091906118b2565b60405180910390fd5b610e345f83836110e8565b5050565b5f73ffffffffffffffffffffffffffffffffffffffff168273ffffffffffffffffffffffffffffffffffffffff1603610ea8575f6040517f96c6fd1e000000000000000000000000000000000000000000000000000000008152600401610e9f91906118b2565b60405180910390fd5b610eb3825f836110e8565b5050565b610ebf611189565b600160055f6101000a81548160ff0219169083151502179055507f62e78cea01bee320cd4e420270b5ea74000d11b0c9f74754ebdbfc544b05a258610f026109d4565b604051610f0f91906118b2565b60405180910390a1565b5f73ffffffffffffffffffffffffffffffffffffffff168473ffffffffffffffffffffffffffffffffffffffff1603610f89575f6040517fe602df05000000000000000000000000000000000000000000000000000000008152600401610f8091906118b2565b60405180910390fd5b5f73ffffffffffffffffffffffffffffffffffffffff168373ffffffffffffffffffffffffffffffffffffffff1603610ff9575f6040517f94280d62000000000000000000000000000000000000000000000000000000008152600401610ff091906118b2565b60405180910390fd5b8160015f8673ffffffffffffffffffffffffffffffffffffffff1673ffffffffffffffffffffffffffffffffffffffff1681526020019081526020015f205f8573ffffffffffffffffffffffffffffffffffffffff1673ffffffffffffffffffffffffffffffffffffffff1681526020019081526020015f208190555080156110e2578273ffffffffffffffffffffffffffffffffffffffff168473ffffffffffffffffffffffffffffffffffffffff167f8c5be1e5ebec7d5bd14f71427d1e84f3dd0314c0f7b2291e5b200ac8c7c3b925846040516110d9919061161c565b60405180910390a35b50505050565b6110f38383836111ca565b505050565b6111028282610787565b6111455780826040517fe2517d3f00000000000000000000000000000000000000000000000000000000815260040161113c9291906118cb565b60405180910390fd5b5050565b6111516106d8565b611187576040517f8dfc202b00000000000000000000000000000000000000000000000000000000815260040160405180910390fd5b565b6111916106d8565b156111c8576040517fd93c066500000000000000000000000000000000000000000000000000000000815260040160405180910390fd5b565b6111d2611189565b6111dd8383836111e2565b505050565b5f73ffffffffffffffffffffffffffffffffffffffff168373ffffffffffffffffffffffffffffffffffffffff1603611232578060025f828254611226919061191f565b92505081905550611300565b5f5f5f8573ffffffffffffffffffffffffffffffffffffffff1673ffffffffffffffffffffffffffffffffffffffff1681526020019081526020015f20549050818110156112bb578381836040517fe450d38c0000000000000000000000000000000000000000000000000000000081526004016112b29392919061187d565b60405180910390fd5b8181035f5f8673ffffffffffffffffffffffffffffffffffffffff1673ffffffffffffffffffffffffffffffffffffffff1681526020019081526020015f2081905550505b5f73ffffffffffffffffffffffffffffffffffffffff168273ffffffffffffffffffffffffffffffffffffffff1603611347578060025f8282540392505081905550611391565b805f5f8473ffffffffffffffffffffffffffffffffffffffff1673ffffffffffffffffffffffffffffffffffffffff1681526020019081526020015f205f82825401925050819055505b8173ffffffffffffffffffffffffffffffffffffffff168373ffffffffffffffffffffffffffffffffffffffff167fddf252ad1be2c89b69c2b068fc378daa952ba7f163c4a11628f55a4df523b3ef836040516113ee919061161c565b60405180910390a3505050565b5f5ffd5b5f7fffffffff0000000000000000000000000000000000000000000000000000000082169050919050565b611433816113ff565b811461143d575f5ffd5b50565b5f8135905061144e8161142a565b92915050565b5f60208284031215611469576114686113fb565b5b5f61147684828501611440565b91505092915050565b5f8115159050919050565b6114938161147f565b82525050565b5f6020820190506114ac5f83018461148a565b92915050565b5f81519050919050565b5f82825260208201905092915050565b8281835e5f83830152505050565b5f601f19601f8301169050919050565b5f6114f4826114b2565b6114fe81856114bc565b935061150e8185602086016114cc565b611517816114da565b840191505092915050565b5f6020820190508181035f83015261153a81846114ea565b905092915050565b5f73ffffffffffffffffffffffffffffffffffffffff82169050919050565b5f61156b82611542565b9050919050565b61157b81611561565b8114611585575f5ffd5b50565b5f8135905061159681611572565b92915050565b5f819050919050565b6115ae8161159c565b81146115b8575f5ffd5b50565b5f813590506115c9816115a5565b92915050565b5f5f604083850312156115e5576115e46113fb565b5b5f6115f285828601611588565b9250506020611603858286016115bb565b9150509250929050565b6116168161159c565b82525050565b5f60208201905061162f5f83018461160d565b92915050565b5f5f5f6060848603121561164c5761164b6113fb565b5b5f61165986828701611588565b935050602061166a86828701611588565b925050604061167b868287016115bb565b9150509250925092565b5f819050919050565b61169781611685565b81146116a1575f5ffd5b50565b5f813590506116b28161168e565b92915050565b5f602082840312156116cd576116cc6113fb565b5b5f6116da848285016116a4565b91505092915050565b6116ec81611685565b82525050565b5f6020820190506117055f8301846116e3565b92915050565b5f5f60408385031215611721576117206113fb565b5b5f61172e858286016116a4565b925050602061173f85828601611588565b9150509250929050565b5f60ff82169050919050565b61175e81611749565b82525050565b5f6020820190506117775f830184611755565b92915050565b5f60208284031215611792576117916113fb565b5b5f61179f848285016115bb565b91505092915050565b5f602082840312156117bd576117bc6113fb565b5b5f6117ca84828501611588565b91505092915050565b5f5f604083850312156117e9576117e86113fb565b5b5f6117f685828601611588565b925050602061180785828601611588565b9150509250929050565b7f4e487b71000000000000000000000000000000000000000000000000000000005f52602260045260245ffd5b5f600282049050600182168061185557607f821691505b60208210810361186857611867611811565b5b50919050565b61187781611561565b82525050565b5f6060820190506118905f83018661186e565b61189d602083018561160d565b6118aa604083018461160d565b949350505050565b5f6020820190506118c55f83018461186e565b92915050565b5f6040820190506118de5f83018561186e565b6118eb60208301846116e3565b9392505050565b7f4e487b71000000000000000000000000000000000000000000000000000000005f52601160045260245ffd5b5f6119298261159c565b91506119348361159c565b925082820190508082111561194c5761194b6118f2565b5b9291505056fea2646970667358221220b0df67e8718072477c45467b605614978e2241ec024b36e1f77b893319fde0af64736f6c63430008210033","linkReferences":{}},"methodIdentifiers":{"DEFAULT_ADMIN_ROLE()":"a217fddf","PAUSER_ROLE()":"e63ab1e9","allowance(address,address)":"dd62ed3e","approve(address,uint256)":"095ea7b3","balanceOf(address)":"70a08231","burn(uint256)":"42966c68","burnFrom(address,uint256)":"79cc6790","decimals()":"313ce567","getRoleAdmin(bytes32)":"248a9ca3","grantRole(bytes32,address)":"2f2ff15d","hasRole(bytes32,address)":"91d14854","mint(address,uint256)":"40c10f19","name()":"06fdde03","pause()":"8456cb59","paused()":"5c975abb","renounceRole(bytes32,address)":"36568abe","revokeRole(bytes32,address)":"d547741f","supportsInterface(bytes4)":"01ffc9a7","symbol()":"95d89b41","totalSupply()":"18160ddd","transfer(address,uint256)":"a9059cbb","transferFrom(address,address,uint256)":"23b872dd","unpause()":"3f4ba83a"},"id":28}